:100000000C9466000C9483000C9483000C94830081
:100010000C9483000C9483000C9483000C94830054
:100020000C9483000C9483000C9483000C94830044
:100030000C9483000C9483000C9483000C94830034
:100040000C9483000C9483000C9483000C94830024
:100050000C9483000C9483000C9483000C94830014
:100060000C9483000C9483000C9483000C94830004
:100070000C9483000C9483000C9483000C948300F4
:100080000C9483000C9483000C9483000C948300E4
:100090000C9483000C9483000C9483000C948300D4
:1000A0000C9483000C9483000C9483000C948300C4
:1000B0000C9483000C9483000C9483000C948300B4
:1000C0000C9483000C9483000C94830011241FBEB5
:1000D000CFEFD8E0DEBFCDBF11E0A0E0B1E0ECEEA5
:1000E000F9E002C005900D92A635B107D9F721E0DD
:1000F000A6E5B1E001C01D92A635B207E1F70E9466
:1001000027030C94F4040C940000CF93DF9300D0E9
:1001100000D01F92CDB7DEB7FE01319625E0DF019A
:100120001D922A95E9F723E029839A838B832C98E3
:1001300062E0CE0102960E9402012C9A0F900F906D
:100140000F900F900F90DF91CF9108950F9301E0E2
:1001500021E040E452E46FE070E080E00E94F500AE
:1001600080E091E00E94850081E00F91089580E099
:1001700091E00E948500089580E090E00E94850053
:1001800008950F931F93CF93DF938A019B0100275C
:10019000107C3F700F2EFEE036952795179507953A
:1001A000FA95D1F7F02DEC01C02BD12B5F738A01AA
:1001B000082B192B80E090E20E948500C8010E9464
:1001C0008500CE010E948500DF91CF911F910F9194
:1001D0000895862B972B0E9485000895462B572B58
:1001E000842B952B0E94850008952C9A249A2F9891
:1001F000279A2D98259A269A89E58CBD81E08DBD98
:1002000080E00895AC012C98662389F0FC019FEFF3
:10021000960F292F30E02F5F3F4F240F351F91910C
:100220009EBD0DB407FEFDCFE217F307C1F72C9A70
:10023000862F08959B01AC0160E271EA87E090E0AF
:100240000E94D204215031093093CD002093CC007C
:1002500088E18093C9008EE08093CA0080E0089511
:10026000E8ECF0E0908195FFFDCF8093CE000895FB
:10027000CF93DF93EC018881882331F021960E948F
:10028000300189918111FBCFDF91CF9108958F9239
:100290009F92AF92BF92DF92EF92FF920F931F93C4
:1002A000CF93DF93CDB7DEB761970FB6F894DEBF7B
:1002B0000FBECDBF21E1E1E1F1E0DE011196019039
:1002C0000D922A95E1F7992364F44A3051F4909500
:1002D0008095709561957F4F8F4F9F4FDD24D3940C
:1002E00001C0D12C0F2EF0E1EF2EF1E0FF2EF02D0A
:1002F000842E912CA12CB12C01C0780187010150D2
:100300001109A50194010E94D204E1E0F0E0EC0F94
:10031000FD1FE60FF71F8081F8018183622F732F85
:10032000842F952F611571058105910531F7DD2029
:1003300021F0015011098DE28083C8010196619678
:100340000FB6F894DEBF0FBECDBFDF91CF911F91E6
:100350000F91FF90EF90DF90BF90AF909F908F90A4
:1003600008952F923F924F925F926F927F928F9259
:100370009F92AF92BF92CF92DF92EF92FF920F9334
:100380001F93CF93DF9300D01F92CDB7DEB7FE014E
:100390007896019111911F01F8018081882309F459
:1003A0003DC1812C912C54018394F12CE12C853298
:1003B00021F00E94300168012AC16801FFEFCF1AC5
:1003C000DF0AF801918180ED890F8A3080F432963E
:1003D0001E2D110F812F880F880F180F1053190F22
:1003E0006F01919180ED890F8A3098F301C01E2D25
:1003F0009E32E1F496012F5F3F4FF601918180ED2F
:10040000890F8A3088F432968E2D880F282F220F7C
:10041000220F820F8053890F6F01919120ED290FD8
:100420002A3098F3F82E02C06901FE2CF601808173
:10043000863609F467C028F4833641F08436C9F063
:10044000E6C0833761F0883711F1E1C081010C5FAC
:100450001F4FF10180810E9430011801D8C0810135
:100460000E5F1F4FF101808191810E9438011801B8
:10047000CEC0F1016081718182819381F4E02F0E01
:10048000311C4AE00E9447010E943801C0C0F101BE
:10049000408051806280738024E0220E311CB301C1
:1004A000A20141145104610480E17806A0F408E03F
:1004B00080E090E0A0E0B0E1689413F8B695A795CD
:1004C000979587951694D1F70150481759076A07F1
:1004D0007B0790F301C008E0011730F480E30E942D
:1004E00030010F5F0117D0F341145104610471040E
:1004F00009F48DC040E1C301B2010E9447010E948E
:10050000380185C0F1014080518062807380E4E051
:100510002E0E311CFF20A9F08F2D880C991CAA1CCF
:10052000BB1CB501A401440F551F661F771F440F64
:10053000551F661F771F840E951EA61EB71E81507D
:1005400061F7C501B4010E94B303A30192010E94A7
:1005500065042B013C0120E030E0A9010E947803F2
:1005600088233CF477FA709477F870948DE20E94B7
:100570003001C301B2010E947D03A50194010E94D4
:10058000D20429013A016983072F8A839B834AE0B9
:10059000C301B2010E9447010E9438018EE20E940D
:1005A00030014980502E6A807B804114FAEC5F064E
:1005B000FAE96F06FBE37F06A0F41AE020E03AECCC
:1005C0004AE95BE3CA01B9012AE030E040E050E0CB
:1005D0000E94D2041150421653066406750690F329
:1005E00001C01AE01F1530F480E30E9430011F5F44
:1005F0001F15D0F345284628472849F04AE069816D
:10060000702F8A819B810E9447010E9438018601D8
:100610000F5F1F4FF60181818111C9CE0F900F909E
:100620000F90DF91CF911F910F91FF90EF90DF908E
:10063000CF90BF90AF909F908F907F906F905F9082
:100640004F903F902F9008950E941A010895E1E67F
:10065000F0E080E88083108260E07BE480E090E05E
:100660000E94240382E291E09F938F930E94B10144
:100670000E94A6000F900F90882349F08CE391E030
:100680009F938F930E94B1010F900F9008C088E450
:1006900091E09F938F930E94B1010F900F900E9461
:1006A000B70047EC50E160E070E080E090E40E9429
:1006B000C10048E559E861E470E080E090E80E94FC
:1006C000C10060E070E080E090EC0E94E90060E032
:1006D00070E080E090EE0E94E9000E94BC0048E2D9
:1006E00050E060E074E080E090E00E94EE00FFCF18
:1006F0000E94F00308F481E008950E948403689446
:10070000B1110C945F0408950E94440488F09F572F
:1007100098F0B92F9927B751B0F0E1F0660F771F25
:10072000881F991F1AF0BA95C9F714C0B13091F01B
:100730000E945E04B1E008950C945E04672F782F48
:100740008827B85F39F0B93FCCF3869577956795E0
:10075000B395D9F73EF490958095709561957F4F4C
:100760008F4F9F4F0895E89409C097FB3EF49095F2
:100770008095709561957F4F8F4F9F4F9923A9F07A
:10078000F92F96E9BB279395F69587957795679509
:10079000B795F111F8CFFAF4BB0F11F460FF1BC04D
:1007A0006F5F7F4F8F4F9F4F16C0882311F096E9E0
:1007B00011C0772321F09EE8872F762F05C066238E
:1007C00071F096E8862F70E060E02AF09A95660F47
:1007D000771F881FDAF7880F9695879597F9089500
:1007E000990F0008550FAA0BE0E8FEEF1616170642
:1007F000E807F907C0F012161306E407F50798F0AA
:10080000621B730B840B950B39F40A2661F0232BC2
:10081000242B252B21F408950A2609F4A140A6953E
:100820008FEF811D811D089597F99F6780E870E023
:1008300060E008959FEF80EC089500240A94161656
:10084000170618060906089500240A9412161306BE
:10085000140605060895092E0394000C11F488234C
:1008600052F0BB0F40F4BF2B11F460FF04C06F5F68
:100870007F4F8F4F9F4F089557FD9058440F551F3E
:1008800059F05F3F71F04795880F97FB991F61F012
:100890009F3F79F087950895121613061406551F89
:1008A000F2CF4695F1DF08C0161617061806991FF5
:1008B000F1CF86957105610508940895E894BB27EA
:1008C00066277727CB0197F908950E9478040C9446
:1008D0002B040E941D0438F00E94240420F095236C
:1008E00011F00C9414040C941A0411240C945F0459
:1008F0000E943C0470F3959FC1F3950F50E0551F83
:10090000629FF001729FBB27F00DB11D639FAA2764
:10091000F00DB11DAA1F649F6627B00DA11D661FB3
:10092000829F2227B00DA11D621F739FB00DA11DD4
:10093000621F839FA00D611D221F749F3327A00D8E
:10094000611D231F849F600D211D822F762F6A2F2A
:1009500011249F5750409AF0F1F088234AF0EE0F8F
:10096000FF1FBB1F661F771F881F91505040A9F7BC
:100970009E3F510580F00C9414040C945F045F3F7B
:10098000E4F3983ED4F3869577956795B795F795F8
:10099000E7959F5FC1F7FE2B880F911D9695879570
:1009A00097F90895A1E21A2EAA1BBB1BFD010DC0E9
:1009B000AA1FBB1FEE1FFF1FA217B307E407F5070F
:1009C00020F0A21BB30BE40BF50B661F771F881FEB
:1009D000991F1A9469F760957095809590959B0181
:0C09E000AC01BD01CF010895F894FFCFD9
:1009EC0020202020202020202020202020202020FB
:1009FC00003031323334353637383941424344458F
:100A0C0046000D0A0D0A41544139383333205465E0
:100A1C00737420436F64650D0A0D0A004144393824
:100A2C003333204F4B0D0A004144393833332045C2
:060A3C0072720D0A0000B9
:00000001FF
